{
  "contractName": "betting",
  "abi": [
    {
      "inputs": [],
      "stateMutability": "nonpayable",
      "type": "constructor"
    },
    {
      "anonymous": false,
      "inputs": [
        {
          "indexed": true,
          "internalType": "uint256",
          "name": "_horseId",
          "type": "uint256"
        }
      ],
      "name": "bettedEvent",
      "type": "event"
    },
    {
      "anonymous": false,
      "inputs": [
        {
          "indexed": false,
          "internalType": "address",
          "name": "_bettorAddr",
          "type": "address"
        }
      ],
      "name": "registrationSuccess",
      "type": "event"
    },
    {
      "inputs": [],
      "name": "bettorCounter",
      "outputs": [
        {
          "internalType": "uint256",
          "name": "",
          "type": "uint256"
        }
      ],
      "stateMutability": "view",
      "type": "function",
      "constant": true
    },
    {
      "inputs": [
        {
          "internalType": "address",
          "name": "",
          "type": "address"
        }
      ],
      "name": "bettors",
      "outputs": [
        {
          "internalType": "bool",
          "name": "betted",
          "type": "bool"
        },
        {
          "internalType": "bool",
          "name": "validated",
          "type": "bool"
        },
        {
          "internalType": "uint256",
          "name": "money",
          "type": "uint256"
        },
        {
          "internalType": "uint256",
          "name": "bettedID",
          "type": "uint256"
        }
      ],
      "stateMutability": "view",
      "type": "function",
      "constant": true
    },
    {
      "inputs": [],
      "name": "horseCounter",
      "outputs": [
        {
          "internalType": "uint256",
          "name": "",
          "type": "uint256"
        }
      ],
      "stateMutability": "view",
      "type": "function",
      "constant": true
    },
    {
      "inputs": [
        {
          "internalType": "uint256",
          "name": "",
          "type": "uint256"
        }
      ],
      "name": "horses",
      "outputs": [
        {
          "internalType": "uint256",
          "name": "id",
          "type": "uint256"
        },
        {
          "internalType": "string",
          "name": "name",
          "type": "string"
        }
      ],
      "stateMutability": "view",
      "type": "function",
      "constant": true
    },
    {
      "inputs": [],
      "name": "prize",
      "outputs": [
        {
          "internalType": "uint256",
          "name": "",
          "type": "uint256"
        }
      ],
      "stateMutability": "view",
      "type": "function",
      "constant": true
    },
    {
      "inputs": [],
      "name": "raceCounter",
      "outputs": [
        {
          "internalType": "uint256",
          "name": "",
          "type": "uint256"
        }
      ],
      "stateMutability": "view",
      "type": "function",
      "constant": true
    },
    {
      "inputs": [],
      "name": "raceResult",
      "outputs": [
        {
          "internalType": "string",
          "name": "",
          "type": "string"
        }
      ],
      "stateMutability": "view",
      "type": "function",
      "constant": true
    },
    {
      "inputs": [
        {
          "internalType": "uint256",
          "name": "",
          "type": "uint256"
        }
      ],
      "name": "races",
      "outputs": [
        {
          "internalType": "uint256",
          "name": "raceID",
          "type": "uint256"
        },
        {
          "internalType": "string",
          "name": "winner",
          "type": "string"
        },
        {
          "internalType": "string",
          "name": "result",
          "type": "string"
        },
        {
          "internalType": "uint256",
          "name": "bettedAmount",
          "type": "uint256"
        }
      ],
      "stateMutability": "view",
      "type": "function",
      "constant": true
    },
    {
      "inputs": [],
      "name": "winnerID",
      "outputs": [
        {
          "internalType": "uint256",
          "name": "",
          "type": "uint256"
        }
      ],
      "stateMutability": "view",
      "type": "function",
      "constant": true
    },
    {
      "inputs": [
        {
          "internalType": "address",
          "name": "addr",
          "type": "address"
        }
      ],
      "name": "registerBettor",
      "outputs": [],
      "stateMutability": "nonpayable",
      "type": "function"
    },
    {
      "inputs": [
        {
          "internalType": "string",
          "name": "_winner",
          "type": "string"
        },
        {
          "internalType": "string",
          "name": "_raceResult",
          "type": "string"
        },
        {
          "internalType": "uint256",
          "name": "_betAmount",
          "type": "uint256"
        }
      ],
      "name": "recordRace",
      "outputs": [],
      "stateMutability": "nonpayable",
      "type": "function"
    },
    {
      "inputs": [
        {
          "internalType": "address",
          "name": "_bettor",
          "type": "address"
        }
      ],
      "name": "getBettor",
      "outputs": [
        {
          "internalType": "bool",
          "name": "",
          "type": "bool"
        }
      ],
      "stateMutability": "view",
      "type": "function",
      "constant": true
    },
    {
      "inputs": [],
      "name": "depositContract",
      "outputs": [],
      "stateMutability": "payable",
      "type": "function",
      "payable": true
    },
    {
      "inputs": [
        {
          "internalType": "uint256",
          "name": "_horseId",
          "type": "uint256"
        }
      ],
      "name": "bet",
      "outputs": [],
      "stateMutability": "payable",
      "type": "function",
      "payable": true
    }
  ],
  "bytecode": "0x60806040523480156200001157600080fd5b50620000586040518060400160405280601081526020017f486f72736520313a204172616269616e00000000000000000000000000000000815250620000ea60201b60201c565b6200009e6040518060400160405280601081526020017f486f72736520323a20456e676c616e6400000000000000000000000000000000815250620000ea60201b60201c565b620000e46040518060400160405280601181526020017f486f72736520333a204168616c74656b65000000000000000000000000000000815250620000ea60201b60201c565b620002fb565b60036000815480929190620000ff9062000248565b91905055506040518060400160405280600354815260200182815250600160006003548152602001908152602001600020600082015181600001556020820151816001019080519060200190620001589291906200015f565b5090505050565b8280546200016d90620002c5565b90600052602060002090601f016020900481019282620001915760008555620001dd565b82601f10620001ac57805160ff1916838001178555620001dd565b82800160010185558215620001dd579182015b82811115620001dc578251825591602001919060010190620001bf565b5b509050620001ec9190620001f0565b5090565b5b808211156200020b576000816000905550600101620001f1565b5090565b7f4e487b7100000000000000000000000000000000000000000000000000000000600052601160045260246000fd5b6000819050919050565b600062000255826200023e565b91507fffffffffffffffffffffffffffffffffffffffffffffffffffffffffffffffff8214156200028b576200028a6200020f565b5b600182019050919050565b7f4e487b7100000000000000000000000000000000000000000000000000000000600052602260045260246000fd5b60006002820490506001821680620002de57607f821691505b60208210811415620002f557620002f462000296565b5b50919050565b6117ad806200030b6000396000f3fe6080604052600436106100dd5760003560e01c80638f8b5cde1161007f578063e3ac5d2611610059578063e3ac5d26146102cc578063e94ad65b146102f7578063fc3898b614610301578063ff4224851461032c576100dd565b80638f8b5cde1461023c578063aa797a3e1461027a578063bb45b2d6146102a3576100dd565b80635b73df74116100bb5780635b73df7414610178578063710ada35146101b55780637365870b146101e05780637bbc469e146101fc576100dd565b8063018aa797146100e257806322010c1f1461010d578063337ebd7a1461014d575b600080fd5b3480156100ee57600080fd5b506100f7610357565b6040516101049190611000565b60405180910390f35b34801561011957600080fd5b50610134600480360381019061012f919061108d565b61035d565b60405161014494939291906110d5565b60405180910390f35b34801561015957600080fd5b506101626103a7565b60405161016f9190611000565b60405180910390f35b34801561018457600080fd5b5061019f600480360381019061019a919061108d565b6103ad565b6040516101ac919061111a565b60405180910390f35b3480156101c157600080fd5b506101ca6104dd565b6040516101d79190611000565b60405180910390f35b6101fa60048036038101906101f59190611161565b6104e3565b005b34801561020857600080fd5b50610223600480360381019061021e9190611161565b610a5f565b6040516102339493929190611227565b60405180910390f35b34801561024857600080fd5b50610263600480360381019061025e9190611161565b610b9f565b60405161027192919061127a565b60405180910390f35b34801561028657600080fd5b506102a1600480360381019061029c91906113df565b610c4b565b005b3480156102af57600080fd5b506102ca60048036038101906102c5919061108d565b610cf1565b005b3480156102d857600080fd5b506102e1610ea8565b6040516102ee9190611000565b60405180910390f35b6102ff610eae565b005b34801561030d57600080fd5b50610316610eb0565b604051610323919061146a565b60405180910390f35b34801561033857600080fd5b50610341610f3e565b60405161034e9190611000565b60405180910390f35b60035481565b60006020528060005260406000206000915090508060000160009054906101000a900460ff16908060000160019054906101000a900460ff16908060010154908060020154905084565b60065481565b6000336000808273ffffffffffffffffffffffffffffffffffffffff1673ffffffffffffffffffffffffffffffffffffffff16815260200190815260200160002060000160019054906101000a900460ff1661043e576040517f08c379a0000000000000000000000000000000000000000000000000000000008152600401610435906114d8565b60405180910390fd5b3373ffffffffffffffffffffffffffffffffffffffff168373ffffffffffffffffffffffffffffffffffffffff161480156104c457506000808473ffffffffffffffffffffffffffffffffffffffff1673ffffffffffffffffffffffffffffffffffffffff16815260200190815260200160002060000160019054906101000a900460ff165b156104d257600191506104d7565b600091505b50919050565b60055481565b6000803373ffffffffffffffffffffffffffffffffffffffff1673ffffffffffffffffffffffffffffffffffffffff16815260200190815260200160002060000160019054906101000a900460ff1661053b57600080fd5b6000803373ffffffffffffffffffffffffffffffffffffffff1673ffffffffffffffffffffffffffffffffffffffff16815260200190815260200160002060000160009054906101000a900460ff161561059457600080fd5b6000811180156105a657506003548111155b6105af57600080fd5b346000803373ffffffffffffffffffffffffffffffffffffffff1673ffffffffffffffffffffffffffffffffffffffff1681526020019081526020016000206001015410156105fd57600080fd5b60016000803373ffffffffffffffffffffffffffffffffffffffff1673ffffffffffffffffffffffffffffffffffffffff16815260200190815260200160002060000160006101000a81548160ff021916908315150217905550806000803373ffffffffffffffffffffffffffffffffffffffff1673ffffffffffffffffffffffffffffffffffffffff1681526020019081526020016000206002018190555060016003426106ac9190611527565b6106b69190611587565b6006819055506040518060400160405280600481526020017f4c4f53450000000000000000000000000000000000000000000000000000000081525060089080519060200190610707929190610f44565b506006546000803373ffffffffffffffffffffffffffffffffffffffff1673ffffffffffffffffffffffffffffffffffffffff1681526020019081526020016000206002015414156107fc5734600561076091906115dd565b6007819055503373ffffffffffffffffffffffffffffffffffffffff166108fc6007549081150290604051600060405180830381858888f193505050501580156107ae573d6000803e3d6000fd5b506040518060400160405280600381526020017f57494e0000000000000000000000000000000000000000000000000000000000815250600890805190602001906107fa929190610f44565b505b610931600160006006548152602001908152602001600020600101805461082290611666565b80601f016020809104026020016040519081016040528092919081815260200182805461084e90611666565b801561089b5780601f106108705761010080835404028352916020019161089b565b820191906000526020600020905b81548152906001019060200180831161087e57829003601f168201915b5050505050600880546108ad90611666565b80601f01602080910402602001604051908101604052809291908181526020018280546108d990611666565b80156109265780601f106108fb57610100808354040283529160200191610926565b820191906000526020600020905b81548152906001019060200180831161090957829003601f168201915b505050505034610c4b565b60008060003373ffffffffffffffffffffffffffffffffffffffff1673ffffffffffffffffffffffffffffffffffffffff16815260200190815260200160002060000160006101000a81548160ff02191690831515021790555060008060003373ffffffffffffffffffffffffffffffffffffffff1673ffffffffffffffffffffffffffffffffffffffff168152602001908152602001600020600201819055503373ffffffffffffffffffffffffffffffffffffffff16316000803373ffffffffffffffffffffffffffffffffffffffff1673ffffffffffffffffffffffffffffffffffffffff16815260200190815260200160002060010181905550807f64f0014fd83747b616a485884a663df111989f4c8bd242ad8730b27f5256ff0b60405160405180910390a250565b6002602052806000526040600020600091509050806000015490806001018054610a8890611666565b80601f0160208091040260200160405190810160405280929190818152602001828054610ab490611666565b8015610b015780601f10610ad657610100808354040283529160200191610b01565b820191906000526020600020905b815481529060010190602001808311610ae457829003601f168201915b505050505090806002018054610b1690611666565b80601f0160208091040260200160405190810160405280929190818152602001828054610b4290611666565b8015610b8f5780601f10610b6457610100808354040283529160200191610b8f565b820191906000526020600020905b815481529060010190602001808311610b7257829003601f168201915b5050505050908060030154905084565b6001602052806000526040600020600091509050806000015490806001018054610bc890611666565b80601f0160208091040260200160405190810160405280929190818152602001828054610bf490611666565b8015610c415780601f10610c1657610100808354040283529160200191610c41565b820191906000526020600020905b815481529060010190602001808311610c2457829003601f168201915b5050505050905082565b60056000815480929190610c5e90611698565b91905055506040518060800160405280600554815260200184815260200183815260200182815250600260006005548152602001908152602001600020600082015181600001556020820151816001019080519060200190610cc1929190610f44565b506040820151816002019080519060200190610cde929190610f44565b5060608201518160030155905050505050565b336000808273ffffffffffffffffffffffffffffffffffffffff1673ffffffffffffffffffffffffffffffffffffffff16815260200190815260200160002060000160019054906101000a900460ff1615610d81576040517f08c379a0000000000000000000000000000000000000000000000000000000008152600401610d789061172d565b60405180910390fd5b60046000815480929190610d9490611698565b919050555060405180608001604052806000151581526020016001151581526020018373ffffffffffffffffffffffffffffffffffffffff1631815260200160008152506000808473ffffffffffffffffffffffffffffffffffffffff1673ffffffffffffffffffffffffffffffffffffffff16815260200190815260200160002060008201518160000160006101000a81548160ff02191690831515021790555060208201518160000160016101000a81548160ff02191690831515021790555060408201518160010155606082015181600201559050507f2f12efb1605dc3bcb107bd7d8a16ef0e3a63c2a43c616657589c4305913c9b7482604051610e9c919061175c565b60405180910390a15050565b60075481565b565b60088054610ebd90611666565b80601f0160208091040260200160405190810160405280929190818152602001828054610ee990611666565b8015610f365780601f10610f0b57610100808354040283529160200191610f36565b820191906000526020600020905b815481529060010190602001808311610f1957829003601f168201915b505050505081565b60045481565b828054610f5090611666565b90600052602060002090601f016020900481019282610f725760008555610fb9565b82601f10610f8b57805160ff1916838001178555610fb9565b82800160010185558215610fb9579182015b82811115610fb8578251825591602001919060010190610f9d565b5b509050610fc69190610fca565b5090565b5b80821115610fe3576000816000905550600101610fcb565b5090565b6000819050919050565b610ffa81610fe7565b82525050565b60006020820190506110156000830184610ff1565b92915050565b6000604051905090565b600080fd5b600080fd5b600073ffffffffffffffffffffffffffffffffffffffff82169050919050565b600061105a8261102f565b9050919050565b61106a8161104f565b811461107557600080fd5b50565b60008135905061108781611061565b92915050565b6000602082840312156110a3576110a2611025565b5b60006110b184828501611078565b91505092915050565b60008115159050919050565b6110cf816110ba565b82525050565b60006080820190506110ea60008301876110c6565b6110f760208301866110c6565b6111046040830185610ff1565b6111116060830184610ff1565b95945050505050565b600060208201905061112f60008301846110c6565b92915050565b61113e81610fe7565b811461114957600080fd5b50565b60008135905061115b81611135565b92915050565b60006020828403121561117757611176611025565b5b60006111858482850161114c565b91505092915050565b600081519050919050565b600082825260208201905092915050565b60005b838110156111c85780820151818401526020810190506111ad565b838111156111d7576000848401525b50505050565b6000601f19601f8301169050919050565b60006111f98261118e565b6112038185611199565b93506112138185602086016111aa565b61121c816111dd565b840191505092915050565b600060808201905061123c6000830187610ff1565b818103602083015261124e81866111ee565b9050818103604083015261126281856111ee565b90506112716060830184610ff1565b95945050505050565b600060408201905061128f6000830185610ff1565b81810360208301526112a181846111ee565b90509392505050565b600080fd5b600080fd5b7f4e487b7100000000000000000000000000000000000000000000000000000000600052604160045260246000fd5b6112ec826111dd565b810181811067ffffffffffffffff8211171561130b5761130a6112b4565b5b80604052505050565b600061131e61101b565b905061132a82826112e3565b919050565b600067ffffffffffffffff82111561134a576113496112b4565b5b611353826111dd565b9050602081019050919050565b82818337600083830152505050565b600061138261137d8461132f565b611314565b90508281526020810184848401111561139e5761139d6112af565b5b6113a9848285611360565b509392505050565b600082601f8301126113c6576113c56112aa565b5b81356113d684826020860161136f565b91505092915050565b6000806000606084860312156113f8576113f7611025565b5b600084013567ffffffffffffffff8111156114165761141561102a565b5b611422868287016113b1565b935050602084013567ffffffffffffffff8111156114435761144261102a565b5b61144f868287016113b1565b92505060406114608682870161114c565b9150509250925092565b6000602082019050818103600083015261148481846111ee565b905092915050565b7f626574746f72207265676973746572656420696e207468652073797374656d00600082015250565b60006114c2601f83611199565b91506114cd8261148c565b602082019050919050565b600060208201905081810360008301526114f1816114b5565b9050919050565b7f4e487b7100000000000000000000000000000000000000000000000000000000600052601260045260246000fd5b600061153282610fe7565b915061153d83610fe7565b92508261154d5761154c6114f8565b5b828206905092915050565b7f4e487b7100000000000000000000000000000000000000000000000000000000600052601160045260246000fd5b600061159282610fe7565b915061159d83610fe7565b9250827fffffffffffffffffffffffffffffffffffffffffffffffffffffffffffffffff038211156115d2576115d1611558565b5b828201905092915050565b60006115e882610fe7565b91506115f383610fe7565b9250817fffffffffffffffffffffffffffffffffffffffffffffffffffffffffffffffff048311821515161561162c5761162b611558565b5b828202905092915050565b7f4e487b7100000000000000000000000000000000000000000000000000000000600052602260045260246000fd5b6000600282049050600182168061167e57607f821691505b6020821081141561169257611691611637565b5b50919050565b60006116a382610fe7565b91507fffffffffffffffffffffffffffffffffffffffffffffffffffffffffffffffff8214156116d6576116d5611558565b5b600182019050919050565b7f626574746f7220616c7265616479207265676973746572656400000000000000600082015250565b6000611717601983611199565b9150611722826116e1565b602082019050919050565b600060208201905081810360008301526117468161170a565b9050919050565b6117568161104f565b82525050565b6000602082019050611771600083018461174d565b9291505056fea264697066735822122056db1582ed819cd84b70761ff198496a4c380176c36ba83b2a1ef16715938ff964736f6c634300080a0033",
  "immutableReferences": {},
  "source": "// SPDX-License-Identifier: MIT\npragma solidity >=0.4.22 <0.9.0;\n\ncontract betting {\n\n  // address public ownerAddr = 0xaE7DE0a0E7dD1a63C916fFd229F2501292B79643;\n\n  struct Horse {\n    uint id;\n    string name;\n  }\n\n  struct Race {\n    uint raceID;\n    string winner;\n    string result;\n    uint bettedAmount;\n  }\n\n  struct Bettor {\n    bool betted; // true when bettor has betted\n    bool validated; //true when bettor has registered and passed verification process\n    uint money;\n    uint bettedID;\n  }\n\n  mapping(address => Bettor) public bettors;\n  mapping(uint => Horse) public horses;\n  mapping(uint => Race) public races;\n\n  uint public horseCounter;\n  uint public bettorCounter;\n  uint public raceCounter;\n  \n  uint public winnerID;\n  uint public prize;\n  string public raceResult;\n\n  constructor() {\n    addHorse(\"Horse 1: Arabian\");\n    addHorse(\"Horse 2: England\");\n    addHorse(\"Horse 3: Ahalteke\");\n  }\n\n  // Events\n  event bettedEvent(uint indexed _horseId);\n  event registrationSuccess(address _bettorAddr);\n\n  // Error Checking\n  modifier bettorMustNotExist(address _bettor) {\n    require(!bettors[_bettor].validated,\"bettor already registered\");\n    _;\n  }\n\n  modifier bettorMustExist(address _bettor) {\n    require(bettors[_bettor].validated,\"bettor registered in the system\");\n    _;\n  }\n\n  // Adding members\n  function addHorse (string memory _name) private {\n    horseCounter++;\n    horses[horseCounter] = Horse(horseCounter,_name);\n  }\n\n  function registerBettor(address addr) public bettorMustNotExist(msg.sender) {\n    bettorCounter++;\n    bettors[addr] = Bettor(false, true, addr.balance, 0);\n\n    emit registrationSuccess(addr);\n  }\n\n  function recordRace(string memory _winner, string memory _raceResult, uint _betAmount) public {\n    raceCounter++;\n    races[raceCounter] = Race(raceCounter, _winner, _raceResult, _betAmount);\n  }\n\n  \n  //login\n  function getBettor(address _bettor) public bettorMustExist(msg.sender) view returns(bool) {\n    //check bettor is registered before\n    if (_bettor == msg.sender && bettors[_bettor].validated) {\n      return(true);\n    } else {\n      return(false);\n    }\n  }\n\n  function depositContract() public payable{}\n\n  function bet (uint _horseId) public payable {\n    //require a registered and valid bettors\n    require(bettors[msg.sender].validated);\n    //require bettors haven't betted before\n    require(!bettors[msg.sender].betted);\n    //bet a valid horse\n    require(_horseId > 0 && _horseId <= horseCounter);\n    // require enough money to bet\n    require(bettors[msg.sender].money >= msg.value);\n\n    bettors[msg.sender].betted = true;\n    bettors[msg.sender].bettedID = _horseId;\n    // bettors[msg.sender].money = bettors[msg.sender].money - msg.value;\n    // horses[_horseId].voteCount++;\n    \n    // randomize the winner\n    winnerID = (block.timestamp % 3) + 1;\n    // winnerID = 3;\n    // winnerID = uint(keccak256(abi.encodePacked(block.difficulty, block.timestamp))) % 3 + 1;\n\n    // Check winner\n    raceResult = \"LOSE\";\n    if (bettors[msg.sender].bettedID == winnerID) {\n      // bettors[msg.sender].money = bettors[msg.sender].money + (2 * msg.value); // win\n      prize = 5 * msg.value; // * 1000000000000000000;\n      payable(msg.sender).transfer(prize);\n      raceResult = \"WIN\";\n    }\n\n    recordRace(horses[winnerID].name, raceResult, msg.value);\n\n    // refresh\n    bettors[msg.sender].betted = false;\n    bettors[msg.sender].bettedID = 0;\n    bettors[msg.sender].money = msg.sender.balance;\n\n    emit bettedEvent(_horseId);\n  }\n}\n",
  "sourcePath": "/home/indra20215136/horse_betting_system/contracts/betting.sol",
  "compiler": {
    "name": "solc",
    "version": "0.8.10+commit.fc410830.Emscripten.clang"
  },
  "schemaVersion": "3.4.13",
  "updatedAt": "2023-06-13T16:29:57.316Z",
  "networkType": "ethereum",
  "devdoc": {
    "kind": "dev",
    "methods": {},
    "version": 1
  },
  "userdoc": {
    "kind": "user",
    "methods": {},
    "version": 1
  }
}