{
  "contractName": "voting",
  "abi": [
    {
      "inputs": [],
      "stateMutability": "nonpayable",
      "type": "constructor"
    },
    {
      "anonymous": false,
      "inputs": [
        {
          "indexed": false,
          "internalType": "address",
          "name": "_voterAddr",
          "type": "address"
        }
      ],
      "name": "registrationSuccess",
      "type": "event"
    },
    {
      "anonymous": false,
      "inputs": [
        {
          "indexed": true,
          "internalType": "uint256",
          "name": "_candId",
          "type": "uint256"
        }
      ],
      "name": "votedEvent",
      "type": "event"
    },
    {
      "inputs": [],
      "name": "candCounter",
      "outputs": [
        {
          "internalType": "uint256",
          "name": "",
          "type": "uint256"
        }
      ],
      "stateMutability": "view",
      "type": "function",
      "constant": true
    },
    {
      "inputs": [
        {
          "internalType": "uint256",
          "name": "",
          "type": "uint256"
        }
      ],
      "name": "candidates",
      "outputs": [
        {
          "internalType": "uint256",
          "name": "id",
          "type": "uint256"
        },
        {
          "internalType": "string",
          "name": "name",
          "type": "string"
        },
        {
          "internalType": "uint256",
          "name": "voteCount",
          "type": "uint256"
        }
      ],
      "stateMutability": "view",
      "type": "function",
      "constant": true
    },
    {
      "inputs": [],
      "name": "voterCounter",
      "outputs": [
        {
          "internalType": "uint256",
          "name": "",
          "type": "uint256"
        }
      ],
      "stateMutability": "view",
      "type": "function",
      "constant": true
    },
    {
      "inputs": [
        {
          "internalType": "address",
          "name": "",
          "type": "address"
        }
      ],
      "name": "voters",
      "outputs": [
        {
          "internalType": "bool",
          "name": "voted",
          "type": "bool"
        },
        {
          "internalType": "bool",
          "name": "validated",
          "type": "bool"
        }
      ],
      "stateMutability": "view",
      "type": "function",
      "constant": true
    },
    {
      "inputs": [
        {
          "internalType": "address",
          "name": "addr",
          "type": "address"
        }
      ],
      "name": "registerVoter",
      "outputs": [],
      "stateMutability": "nonpayable",
      "type": "function"
    },
    {
      "inputs": [
        {
          "internalType": "address",
          "name": "_voter",
          "type": "address"
        }
      ],
      "name": "getVoter",
      "outputs": [
        {
          "internalType": "bool",
          "name": "",
          "type": "bool"
        }
      ],
      "stateMutability": "view",
      "type": "function",
      "constant": true
    },
    {
      "inputs": [
        {
          "internalType": "uint256",
          "name": "_candId",
          "type": "uint256"
        }
      ],
      "name": "vote",
      "outputs": [],
      "stateMutability": "nonpayable",
      "type": "function"
    }
  ],
  "bytecode": "0x60806040523480156200001157600080fd5b50620000586040518060400160405280600c81526020017f436f6e74657374616e7420310000000000000000000000000000000000000000815250620000a460201b60201c565b6200009e6040518060400160405280600c81526020017f436f6e74657374616e7420320000000000000000000000000000000000000000815250620000a460201b60201c565b620002c6565b60026000815480929190620000b99062000213565b9190505550604051806060016040528060025481526020018281526020016000815250600160006002548152602001908152602001600020600082015181600001556020820151816001019080519060200190620001199291906200012a565b506040820151816002015590505050565b828054620001389062000290565b90600052602060002090601f0160209004810192826200015c5760008555620001a8565b82601f106200017757805160ff1916838001178555620001a8565b82800160010185558215620001a8579182015b82811115620001a75782518255916020019190600101906200018a565b5b509050620001b79190620001bb565b5090565b5b80821115620001d6576000816000905550600101620001bc565b5090565b7f4e487b7100000000000000000000000000000000000000000000000000000000600052601160045260246000fd5b6000819050919050565b6000620002208262000209565b91507fffffffffffffffffffffffffffffffffffffffffffffffffffffffffffffffff821415620002565762000255620001da565b5b600182019050919050565b7f4e487b7100000000000000000000000000000000000000000000000000000000600052602260045260246000fd5b60006002820490506001821680620002a957607f821691505b60208210811415620002c057620002bf62000261565b5b50919050565b610b1a80620002d66000396000f3fe608060405234801561001057600080fd5b506004361061007d5760003560e01c806338db6dd31161005b57806338db6dd3146100ee5780634d50ba3a1461010a578063a3ec138d14610128578063d4f50f98146101595761007d565b80630121b93f146100825780631220b8d51461009e5780633477ee2e146100bc575b600080fd5b61009c600480360381019061009791906106f1565b610189565b005b6100a661030b565b6040516100b3919061072d565b60405180910390f35b6100d660048036038101906100d191906106f1565b610311565b6040516100e5939291906107e1565b60405180910390f35b6101086004803603810190610103919061087d565b6103c3565b005b610112610542565b60405161011f919061072d565b60405180910390f35b610142600480360381019061013d919061087d565b610548565b6040516101509291906108c5565b60405180910390f35b610173600480360381019061016e919061087d565b610586565b60405161018091906108ee565b60405180910390f35b6000803373ffffffffffffffffffffffffffffffffffffffff1673ffffffffffffffffffffffffffffffffffffffff16815260200190815260200160002060000160019054906101000a900460ff166101e157600080fd5b6000803373ffffffffffffffffffffffffffffffffffffffff1673ffffffffffffffffffffffffffffffffffffffff16815260200190815260200160002060000160009054906101000a900460ff161561023a57600080fd5b60008111801561024c57506002548111155b61025557600080fd5b60016000803373ffffffffffffffffffffffffffffffffffffffff1673ffffffffffffffffffffffffffffffffffffffff16815260200190815260200160002060000160006101000a81548160ff0219169083151502179055506001600082815260200190815260200160002060020160008154809291906102d690610938565b9190505550807ffff3c900d938d21d0990d786e819f29b8d05c1ef587b462b939609625b684b1660405160405180910390a250565b60025481565b600160205280600052604060002060009150905080600001549080600101805461033a906109b0565b80601f0160208091040260200160405190810160405280929190818152602001828054610366906109b0565b80156103b35780601f10610388576101008083540402835291602001916103b3565b820191906000526020600020905b81548152906001019060200180831161039657829003601f168201915b5050505050908060020154905083565b336000808273ffffffffffffffffffffffffffffffffffffffff1673ffffffffffffffffffffffffffffffffffffffff16815260200190815260200160002060000160019054906101000a900460ff1615610453576040517f08c379a000000000000000000000000000000000000000000000000000000000815260040161044a90610a2e565b60405180910390fd5b6003600081548092919061046690610938565b91905055506040518060400160405280600015158152602001600115158152506000808473ffffffffffffffffffffffffffffffffffffffff1673ffffffffffffffffffffffffffffffffffffffff16815260200190815260200160002060008201518160000160006101000a81548160ff02191690831515021790555060208201518160000160016101000a81548160ff0219169083151502179055509050507f2f12efb1605dc3bcb107bd7d8a16ef0e3a63c2a43c616657589c4305913c9b74826040516105369190610a5d565b60405180910390a15050565b60035481565b60006020528060005260406000206000915090508060000160009054906101000a900460ff16908060000160019054906101000a900460ff16905082565b6000336000808273ffffffffffffffffffffffffffffffffffffffff1673ffffffffffffffffffffffffffffffffffffffff16815260200190815260200160002060000160019054906101000a900460ff16610617576040517f08c379a000000000000000000000000000000000000000000000000000000000815260040161060e90610ac4565b60405180910390fd5b3373ffffffffffffffffffffffffffffffffffffffff168373ffffffffffffffffffffffffffffffffffffffff1614801561069d57506000808473ffffffffffffffffffffffffffffffffffffffff1673ffffffffffffffffffffffffffffffffffffffff16815260200190815260200160002060000160019054906101000a900460ff165b156106ab57600191506106b0565b600091505b50919050565b600080fd5b6000819050919050565b6106ce816106bb565b81146106d957600080fd5b50565b6000813590506106eb816106c5565b92915050565b600060208284031215610707576107066106b6565b5b6000610715848285016106dc565b91505092915050565b610727816106bb565b82525050565b6000602082019050610742600083018461071e565b92915050565b600081519050919050565b600082825260208201905092915050565b60005b83811015610782578082015181840152602081019050610767565b83811115610791576000848401525b50505050565b6000601f19601f8301169050919050565b60006107b382610748565b6107bd8185610753565b93506107cd818560208601610764565b6107d681610797565b840191505092915050565b60006060820190506107f6600083018661071e565b818103602083015261080881856107a8565b9050610817604083018461071e565b949350505050565b600073ffffffffffffffffffffffffffffffffffffffff82169050919050565b600061084a8261081f565b9050919050565b61085a8161083f565b811461086557600080fd5b50565b60008135905061087781610851565b92915050565b600060208284031215610893576108926106b6565b5b60006108a184828501610868565b91505092915050565b60008115159050919050565b6108bf816108aa565b82525050565b60006040820190506108da60008301856108b6565b6108e760208301846108b6565b9392505050565b600060208201905061090360008301846108b6565b92915050565b7f4e487b7100000000000000000000000000000000000000000000000000000000600052601160045260246000fd5b6000610943826106bb565b91507fffffffffffffffffffffffffffffffffffffffffffffffffffffffffffffffff82141561097657610975610909565b5b600182019050919050565b7f4e487b7100000000000000000000000000000000000000000000000000000000600052602260045260246000fd5b600060028204905060018216806109c857607f821691505b602082108114156109dc576109db610981565b5b50919050565b7f766f74657220616c726561647920726567697374657265640000000000000000600082015250565b6000610a18601883610753565b9150610a23826109e2565b602082019050919050565b60006020820190508181036000830152610a4781610a0b565b9050919050565b610a578161083f565b82525050565b6000602082019050610a726000830184610a4e565b92915050565b7f766f746572207265676973746572656420696e207468652073797374656d0000600082015250565b6000610aae601e83610753565b9150610ab982610a78565b602082019050919050565b60006020820190508181036000830152610add81610aa1565b905091905056fea26469706673582212201363069dc59e7742c0bfe645d871d52d7b082d3fb7697a023e9326d74f583c2e64736f6c634300080a0033",
  "immutableReferences": {},
  "source": "// SPDX-License-Identifier: MIT\npragma solidity >=0.4.22 <0.9.0;\n\ncontract voting {\n  struct Candidate {\n    uint id;\n    string name;\n    uint voteCount;\n  }\n\n  struct Voter {\n    bool voted; // true when voter has voted\n    bool validated; //true when voter has registered and passed verification process\n  }\n\n  mapping(address => Voter) public voters;\n  mapping(uint => Candidate) public candidates;\n\n  uint public candCounter;\n  uint public voterCounter;\n\n  constructor() {\n    addCandidate(\"Contestant 1\"); //testing\n    addCandidate(\"Contestant 2\"); //testing\n  }\n\n  event votedEvent(uint indexed _candId);\n  event registrationSuccess(address _voterAddr);\n\n  modifier voterMustNotExist(address _voter) {\n    require(!voters[_voter].validated,\"voter already registered\");\n    _;\n  }\n\n  modifier voterMustExist(address _voter) {\n    require(voters[_voter].validated,\"voter registered in the system\");\n    _;\n  }\n\n  function addCandidate (string memory _name) private {\n    candCounter++;\n    candidates[candCounter] = Candidate(candCounter,_name,0);\n  }\n\n  function registerVoter(address addr) public voterMustNotExist(msg.sender) {\n    voterCounter++;\n    voters[addr] = Voter(false,true);\n\n    emit registrationSuccess(addr);\n  }\n\n  //login\n  function getVoter(address _voter) public voterMustExist(msg.sender) view returns(bool) {\n    //check voter is registered before\n    if (_voter == msg.sender && voters[_voter].validated) {\n      return(true);\n    } else {\n      return(false);\n    }\n  }\n\n  function vote (uint _candId) public {\n    //require a registered and valid voters\n    require(voters[msg.sender].validated);\n    //require voters haven't voted before\n    require(!voters[msg.sender].voted);\n    //vote a valid candidate\n    require(_candId > 0 && _candId <= candCounter);\n\n    voters[msg.sender].voted = true;\n    candidates[_candId].voteCount++;\n\n    emit votedEvent(_candId);\n  }\n}\n",
  "sourcePath": "/home/indra20215136/voting_system/contracts/voting.sol",
  "compiler": {
    "name": "solc",
    "version": "0.8.10+commit.fc410830.Emscripten.clang"
  },
  "schemaVersion": "3.4.13",
  "updatedAt": "2023-05-09T09:35:26.617Z",
  "networkType": "ethereum",
  "devdoc": {
    "kind": "dev",
    "methods": {},
    "version": 1
  },
  "userdoc": {
    "kind": "user",
    "methods": {},
    "version": 1
  }
}